:1000000019C02BC02AC029C028C027C026C025C0BF
:1000100024C023C022C021C020C01FC01EC01DC0DC
:100020001CC01BC01AC019C018C017C016C015C00C
:1000300014C013C011241FBECFEFD4E0DEBFCDBF6C
:1000400011E0A0E0B1E0E0EEF0E002C005900D921A
:10005000A230B107D9F702D041C0D2CFCF93DF93FE
:10006000CDB7DEB702D011D0FFCFCF93DF93CDB79E
:10007000DEB786E690E02091000130910101FC019D
:1000800020830000DF91CF910895CF93DF93CDB708
:10009000DEB784E290E024E230E0F90120812260C2
:1000A000FC01208388E890E02FE13EE4FC013183ED
:1000B000208386E890E02FE33CE9FC013183208334
:1000C00080E890E020E8FC01208381E890E021E1D5
:1000D000FC0120830000DF91CF910895F894FFCFB9
:0200E0005200CC
:00000001FF
