:100000001FC039C038C037C036C035C034C033C057
:1000100032C031C030C02FC02EC02DC02CC02BC06C
:100020002AC029C028C027C026C025C024C023C09C
:1000300022C021C06364696E6F70737578585B006D
:1000400011241FBECFEFD4E0DEBFCDBF11E0A0E092
:10005000B1E0E2E0F4E102C005900D92AA38B107E8
:10006000D9F721E0AAE8B1E001C01D92A039B2079A
:10007000E1F702D0C4C9C4CFCF93DF93CDB7DEB7C9
:100080002E970FB6F894DEBF0FBECDBF92D16ED0C3
:1000900080E090E0AAEFB4E489839A83AB83BC83C9
:1000A00020E030E04AE753E469817A818B819C81CA
:1000B0005ED2DC01CB018D839E83AF83B88720E0C5
:1000C00030E040E85FE36D817E818F819885CED1FD
:1000D00088232CF481E090E09A8789873BC020E058
:1000E0003FEF4FE757E46D817E818F8198853BD24A
:1000F00018163CF520E030E040E251E469817A8155
:100100008B819C8134D2DC01CB01BC01CD01B2D109
:10011000DC01CB019A8789870FC089E190E09C8739
:100120008B878B859C850197F1F79C878B878985C9
:100130009A8501979A87898789859A85892B69F796
:1001400013C06D817E818F81988594D1DC01CB01B4
:100150009A87898789859A859E878D878D859E85D3
:100160000197F1F79E878D872ED0FECFCF93DF9337
:10017000CDB7DEB785EC90E023E0FC01208384EC72
:1001800090E02FE7FC01208380EC90E022E0FC016E
:10019000208382EC90E02EE0FC01208381EC90E053
:1001A00028E1FC01208384E091E090938B0180930F
:1001B0008A0184E091E090938D0180938C0100008E
:1001C000DF91CF910895CF93DF93CDB7DEB72A9714
:1001D0000FB6F894DEBF0FBECDBF1C821B829AD231
:1001E00020E137E2B9011BD19A83898380918C0188
:1001F00090918D019E838D8380918A0190918B01D6
:1002000098878F838D819E819C014DE150E061E054
:1002100070E086E191E0ABD277C07CD229E130E09A
:10022000B901FDD09A83898384E391E0892F8F936C
:1002300084E391E08F938E818F938D818F9379D218
:100240000F900F900F900F9010C08BE491E0892FCA
:100250008F938BE491E08F9388858F938F818F9319
:1002600077D20F900F900F900F90CE010996292F03
:100270002F938F938FE491E0892F8F938FE491E0F8
:100280008F9388858F938F818F9362D20F900F9079
:100290000F900F900F900F900197B9F649815A81F6
:1002A00089819A81489F9001499F300D589F300D58
:1002B000112489859A8528173907E1F48B819C815F
:1002C00001969C838B838C818F938B818F9382E5A6
:1002D00091E0892F8F9382E591E08F938E818F93A8
:1002E0008D818F9326D20F900F900F900F900F90CB
:1002F0000F900AC08D819E819C0144E150E061E035
:1003000070E084E791E033D249815A8189819A81F2
:10031000489F9001499F300D589F300D11248985C9
:100320009A852817390709F078CF00002A960FB66A
:10033000F894DEBF0FBECDBFDF91CF910895CF936C
:10034000DF9300D01F92CDB7DEB789837B836A83AA
:10035000000080EC90E0FC018081882F90E08072AA
:100360009927892BB1F386EC90E02981FC01208349
:1003700080E090E00F900F900F90DF91CF91089563
:10038000CF93DF9300D0CDB7DEB79A838983000087
:1003900080EC90E0FC0180818823D4F786EC90E02B
:1003A000FC018081882F90E00F900F90DF91CF911A
:1003B0000895CF93DF931F92CDB7DEB781E090E031
:1003C00085D789838981882319F08981813011F546
:1003D0008981882379F480E090E078D7898386E664
:1003E00090E026E630E0F90130812981230FFC01FD
:1003F000208310C080E090E069D7898386E690E092
:1004000026E630E0F90130812981F32FF21B2F2FEE
:10041000FC01208300000F90DF91CF91089597FB9E
:10042000072E16F4009406D077FD08D00BD007FCF9
:1004300005D03EF4909581959F4F089570956195F4
:100440007F4F0895AA1BBB1B51E107C0AA1FBB1F0A
:10045000A617B70710F0A61BB70B881F991F5A9550
:10046000A9F780959095BC01CD0108952FD008F48F
:1004700081E0089557D088F09F5790F0B92F9927C1
:10048000B751A0F0D1F0660F771F881F991F1AF09F
:10049000BA95C9F712C0B13081F05ED0B1E00895CD
:1004A0005BC0672F782F8827B85F39F0B93FCCF34E
:1004B000869577956795B395D9F73EF49095809595
:1004C000709561957F4F8F4F9F4F0895990F00084A
:1004D000550FAA0BE0E8FEEF16161706E807F90716
:1004E000C0F012161306E407F50798F0621B730BB1
:1004F000840B950B39F40A2661F0232B242B252B32
:1005000021F408950A2609F4A140A6958FEF811DD4
:10051000811D089557FD9058440F551F59F05F3FB6
:1005200071F04795880F97FB991F61F09F3F79F015
:1005300087950895121613061406551FF2CF469597
:10054000F1DF08C0161617061806991FF1CF869519
:100550007105610508940895E894BB2766277727FD
:10056000CB0197F90895B2DF08F48FEF08950BD00F
:1005700078C069D028F06ED018F0952309F05AC0E1
:100580005FC01124EACFC6DFA0F3959FD1F3950F8A
:1005900050E0551F629FF001729FBB27F00DB11D07
:1005A000639FAA27F00DB11DAA1F649F6627B00D97
:1005B000A11D661F829F2227B00DA11D621F739F80
:1005C000B00DA11D621F839FA00D611D221F749F8E
:1005D0003327A00D611D231F849F600D211D822FD5
:1005E000762F6A2F11249F5750408AF0E1F088231C
:1005F0004AF0EE0FFF1FBB1F661F771F881F915029
:100600005040A9F79E3F510570F014C0A6CF5F3F40
:10061000ECF3983EDCF3869577956795B795F7955B
:10062000E7959F5FC1F7FE2B880F911D96958795E3
:1006300097F9089597F99F6780E870E060E0089562
:100640009FEF80EC089500240A94161617061806EA
:100650000906089500240A941216130614060506C6
:100660000895092E0394000C11F4882352F0BB0F57
:1006700040F4BF2B11F460FF04C06F5F7F4F8F4FBA
:100680009F4F08958F929F92AF92BF92CF92DF9229
:10069000EF92FF92CF93DF93EC01688179818A8199
:1006A0009B81611571058105910521F464E279ED65
:1006B0008BE597E02DE133EF41E050E00FD64901A3
:1006C0005A019B01AC01A7EAB1E424D66B017C017D
:1006D000ACEEB4EFA501940129D6DC01CB018C0D61
:1006E0009D1DAE1DBF1DB7FF03C00197A109B048F6
:1006F00088839983AA83BB839F77DF91CF91FF90F3
:10070000EF90DF90CF90BF90AF909F908F90089523
:10071000B9DF089582E191E0B5DF0895A0E0B0E08F
:100720008093120190931301A0931401B0931501CB
:100730000895A0E0B0E0EEE9F3E00CC6AE01475F3B
:100740005F4F6F8178858D819E8143D0E2E01EC628
:10075000A0E0B0E0EDEAF3E0FDC5AE01475F5F4F1A
:100760006F8178858D819E8193D3E2E00FC6A0E0F2
:10077000B0E0ECEBF3E0E4C55B014A017901D9019B
:1007800013962C9121FF1DC0C0E0D0E0C815D905FB
:10079000D9F08C016C01CA0CDB1CC8010C151D05BD
:1007A00071F00F5F1F4FD7011896ED91FC911997CB
:1007B000B701DC018C910995892B79F305C021964D
:1007C000E5CF80E090E001C0CE01CDB7DEB7ECE030
:1007D000D3C5ABE0B0E0EEEEF3E0ACC56C017B015D
:1007E0008A01FC0117821682838181FFBFC1CE017D
:1007F00001963C01F6019381F70193FD859193FFEA
:1008000081917F01882309F4ADC1853239F493FDCC
:10081000859193FF81917F01853221F4B60190E0AB
:100820009FD4E8CF912C212C312CFFE1F315D8F087
:100830008B3279F038F4803279F08332A1F4232DB1
:1008400020611DC08D3261F0803369F4232D216059
:1008500016C0832D8260382EE32DE4603E2E2AC020
:10086000F32DF8601DC037FC2DC020ED280F2A3075
:1008700040F08E32B9F436FC75C1232D2064322E3F
:1008800019C036FE06C08AE0989E200D1124922ED3
:1008900011C0EAE02E9E200D1124222EF32DF062CD
:1008A0003F2E08C08C3621F4832D8068382E02C07C
:1008B000883641F4F70193FD859193FF81917F0183
:1008C0008111B3CF982F9F7D9554933028F40C5FFE
:1008D0001F4F9FE399830DC0833631F0833771F04A
:1008E000833509F055C020C0F801808189830E5FEF
:1008F0001F4F88248394912C530112C02801F2E0E9
:100900004F0E511CF801A080B18036FE03C0692D46
:1009100070E002C06FEF7FEFC501D9D34C018201B7
:10092000F32DFF773F2E15C0280122E0420E511C07
:10093000F801A080B18036FE03C0692D70E002C0CE
:100940006FEF7FEFC501B8D34C01F32DF0683F2E58
:10095000820133FC19C0822D90E088169906A0F41C
:10096000B60180E290E0FCD32A94F5CFF50137FC84
:10097000859137FE81915F01B60190E0F1D321109E
:100980002A9421E0821A91088114910479F7E1C038
:10099000843611F0893639F5F80137FE07C06081D9
:1009A0007181828193810C5F1F4F08C060817181CA
:1009B000072E000C880B990B0E5F1F4FF32DFF764F
:1009C0003F2E97FF09C090958095709561957F4F58
:1009D0008F4F9F4FF0683F2E2AE030E0A30115D4DF
:1009E000882E861844C0853731F4232D2F7EB22EF1
:1009F0002AE030E025C0932D997FB92E8F36C1F0C3
:100A000018F4883579F0AEC0803719F0883721F0B6
:100A1000A9C0E92FE061BE2EB4FE0DC0FB2DF4602D
:100A2000BF2E09C034FE0AC0292F2660B22E06C090
:100A300028E030E005C020E130E002C020E132E0F3
:100A4000F801B7FE07C060817181828193810C5FDC
:100A50001F4F06C06081718180E090E00E5F1F4FE4
:100A6000A301D3D3882E8618FB2DFF773F2E36FEA9
:100A70000DC0232D2E7FA22E891458F434FE0BC0F6
:100A800032FC09C0832D8E7EA82E05C0B82CA32C65
:100A900003C0B82C01C0B92CA4FE0FC0FE01E80DA4
:100AA000F11D8081803321F49A2D997EA92E09C0F1
:100AB000A2FE06C0B394B39404C08A2D867809F0D0
:100AC000B394A3FC10C0A0FE06C0B21480F4280C9E
:100AD000922C9B180DC0B21458F4B60180E290E03D
:100AE0003FD3B394F8CFB21418F42B1802C0982C4B
:100AF000212CA4FE0FC0B60180E390E031D3A2FE0A
:100B000016C0A1FC03C088E790E002C088E590E031
:100B1000B6010CC08A2D867851F0A1FE02C08BE28E
:100B200001C080E2A7FC8DE2B60190E019D38914E0
:100B300030F4B60180E390E013D39A94F8CF8A940E
:100B4000F301E80DF11D8081B60190E009D3811019
:100B5000F6CF222009F44ECEB60180E290E000D319
:100B60002A94F7CFF6018681978102C08FEF9FEF1D
:100B70002B96E2E1FBC320FD09C0FC0123FD05C06B
:100B800022FF02C07383628351834083089544FD32
:100B900017C046FD17C0AB01BC01DA01FB01AA0F6B
:100BA000BB1FEE1FFF1F1094D1F74A0F5B1F6E1F74
:100BB0007F1FCB01BA01660F771F881F991F09C0DD
:100BC00033E001C034E0660F771F881F991F315052
:100BD000D1F7620F711D811D911D08950F931F9311
:100BE000CF93DF938C01C8017DD2EC0197FD06C045
:100BF00050D2892BC1F7B801CE01EED2CE01DF91E0
:100C0000CF911F910F9108958F929F92AF92BF92B3
:100C1000EF92FF920F931F93CF93DF938C01D62F08
:100C20007A01B22E5FD29C0133272B32310531F08D
:100C30002D32310559F48B2D8068B82ED15011F426
:100C400080E061C0C8014ED297FDFACFCB2DCD7F99
:100C50002B2D2073F9F48033E9F4AA24AA94AD0E65
:100C600009F43EC0C8013ED297FD3AC09C012F7DD9
:100C700033272835310541F4C264D25089F1C801C7
:100C800031D297FF07C02CC0B6FE02C0C26001C0BF
:100C9000C261DA2D812C912C540120ED280F2830CF
:100CA00078F0C4FF03C0B80197D217C02A3040F0D3
:100CB000C6FFF9CF2F7D3FEE320F3630A0F7275019
:100CC0004C2FC501B40163DF4B015C01C260D15000
:100CD00051F0C80107D297FFE0CFC1FD04C0B0CFEB
:100CE000812C912C5401C7FF08C0B094A09490941B
:100CF0008094811C911CA11CB11C2C2FB501A40156
:100D0000C70139DF81E0DF91CF911F910F91FF90F3
:100D1000EF90BF90AF909F908F900895A0E2B0E0C9
:100D2000E3E9F6E00AC35C01962E7A01F9018E012F
:100D30000F5F1F4F680180E2D8011D928A95E9F785
:100D4000D50113968C9080E090E0612C712C30E0FE
:100D500061E070E083FC259183FE21918F01522E8A
:100D6000211103C080E090E090C02E3511F400976F
:100D700051F1432F50E0481759073CF42D3559F1F4
:100D80002D3219F4772009F103C0772009F468C0E7
:100D9000452D469546954695D601A40FB11D452D86
:100DA00047708B0102C0000F111F4A95E2F7A8019E
:100DB0005C91452B4C93651459F0561410F45394E0
:100DC000E7CF5A94E5CF31E004C07724739401C093
:100DD000712C0196BFCF772019F08E8180628E83AF
:100DE000311103C08824839417C0F6019E012F5D42
:100DF0003F4F8081809581932E173F07D1F7F2CF27
:100E0000E114F10429F0D7018C93F70131967F01A9
:100E10009A94812C9920E9F0C50164D197FD17C0FF
:100E2000FC01FF2723E0F595E7952A95E1F7EC0D06
:100E3000FD1D208130E0AC014770552702C035957B
:100E400027954A95E2F720FDDBCFB501C5D181108A
:100E500089CFE114F10411F0D7011C92C80115C02B
:100E6000422F469546954695D601A40FB11D422FB7
:100E700047708B0102C0000F111F4A95E2F7A801CD
:100E80005C91452B4C93622EA4CFA096EFE071C2EB
:100E9000A0E0B0E0EDE4F7E050C26C01EB015A01D4
:100EA000FC0117821682512CF601E380FE01E3FC5F
:100EB0008591E3FE8191182FEF01882309F4E0C0AA
:100EC00090E0E7D0892B19F0C60188DEEDCF15320E
:100ED00041F4FE01E3FC1591E3FE1191EF0115329F
:100EE00071F4C601FFD097FDC9C0412F50E09C01AD
:100EF000332724173507C1F2B6016ED1C1C01A32AB
:100F000039F4E3FC1591E3FE1191EF0101E001C01A
:100F100000E0F12C20ED210F2A3078F402606F2DD3
:100F200070E080E090E040E232DEF62EFE01E3FC6D
:100F30001591E3FE1191EF01EDCF01FF03C0F11018
:100F400003C09EC0FF24FA94183619F01C3651F0E5
:100F500010C0FE01E3FC1591E3FE1191EF0118367C
:100F600041F408600460FE01E3FC1591E3FE119179
:100F7000EF01112309F484C0612F70E084E390E055
:100F800090D0892B09F47CC000FD07C0F50180805A
:100F90009180C50102965C0102C0812C912C1E3605
:100FA00049F4F6014681578160E070E0202FC401CA
:100FB000E2DD7ACF1336A1F401FD02C0FF24F394E1
:100FC000C60190D097FD5AC08114910429F0F40114
:100FD0008083C40101964C01FA94F110F1CF4AC00C
:100FE0001B3551F49E01A4016F2DC60197DEEC0163
:100FF000892B09F03FC039C0C601F0DD97FD3EC026
:101000001F3649F128F4143621F1193639F125C07B
:10101000133771F01537E9F020C08114910429F0DD
:10102000F4016082C40101964C01FA94FF2059F04A
:10103000C60158D03C0197FD06C02BD0892B69F31F
:10104000B601C301C9D081149104A1F0F40110824A
:1010500011C0006203C0006101C00064202FA40120
:101060006F2DC601D1DD811105C0F601838180732A
:1010700029F406C000FD18CF539416CF552019F05F
:10108000852D90E002C08FEF9FEFCDB7DEB7EFE088
:1010900070C1911118C1803219F089508550D0F774
:1010A0000895FC010590061621F00020D9F7C00133
:1010B00008953197CF010895FC010590615070406B
:1010C0000110D8F7809590958E0F9F1F0895FC0111
:1010D0006150704001900110D8F7809590958E0F67
:1010E0009F1F0895CF93DF93EC012B8120FF33C026
:1010F00026FF0AC02F7B2B838E819F8101969F83C1
:101100008E838A8190E029C022FF0FC0E881F98197
:101110008081082E000C990B009719F420622B8314
:101120001AC03196F983E8830EC0EA85FB850995DC
:1011300097FF09C02B81019611F080E201C080E188
:10114000822B8B8308C02E813F812F5F3F4F3F83CF
:101150002E83992702C08FEF9FEFDF91CF910895E3
:101160000F931F93CF93DF93FB01238121FD03C0D6
:101170008FEF9FEF2CC022FF16C04681578124813C
:1011800035814217530744F4A081B1819D012F5F3F
:101190003F4F318320838C93268137812F5F3F4FD0
:1011A0003783268314C08B01EC01FB010084F18599
:1011B000E02D0995892BE1F6D80116968D919C9129
:1011C0001797019617969C938E931697CE01DF91F1
:1011D000CF911F910F910895FB01238120FF12C031
:1011E00026FD10C08F3F3FEF930761F082832F7D74
:1011F0002064238326813781215031093783268358
:10120000992708958FEF9FEF0895FA01AA272830B4
:1012100051F1203181F1E8946F936E7F6E5F7F4FC3
:101220008F4F9F4FAF4FB1E03ED0B4E03CD0670F3F
:10123000781F891F9A1FA11D680F791F8A1F911D92
:10124000A11D6A0F711D811D911DA11D20D009F4E2
:1012500068943F912AE0269F11243019305D319324
:10126000DEF6CF010895462F4770405D4193B3E00D
:101270000FD0C9F7F6CF462F4F70405D4A3318F0B4
:10128000495D31FD4052419302D0A9F7EACFB4E065
:10129000A6959795879577956795BA95C9F700971D
:1012A0006105710508959B01AC010A2E06945795BE
:1012B000479537952795BA95C9F7620F731F841F15
:1012C000951FA01D0895992788270895F999FECFA5
:1012D00092BD81BDF89A992780B50895052E97FB98
:1012E00016F400940FD057FD05D05BD007FC02D058
:1012F00046F408C050954095309521953F4F4F4F8B
:101300005F4F089590958095709561957F4F8F4FB1
:101310009F4F089568D0A59F900DB49F900DA49FF6
:10132000800D911D11240895B7FFF4CFF3DF821BC8
:10133000930B08952F923F924F925F926F927F92FC
:101340008F929F92AF92BF92CF92DF92EF92FF92D5
:101350000F931F93CF93DF93CDB7DEB7CA1BDB0B81
:101360000FB6F894DEBF0FBECDBF09942A88398826
:1013700048885F846E847D848C849B84AA84B9842D
:10138000C884DF80EE80FD800C811B81AA81B98139
:10139000CE0FD11D0FB6F894DEBF0FBECDBFED014D
:1013A0000895A1E21A2EAA1BBB1BFD010DC0AA1FA6
:1013B000BB1FEE1FFF1FA217B307E407F50720F0BE
:1013C000A21BB30BE40BF50B661F771F881F991F39
:1013D0001A9469F760957095809590959B01AC0182
:1013E000BD01CF010895A29FB001B39FC001A39F8B
:1013F00001D0B29F700D811D1124911D0895F894A4
:02140000FFCF1C
:101402000500010000000003000000009F01C00170
:1014120000000100000057656C636F6D6520746FFA
:1014220020746865204D6174682047616D652121D3
:10143200200D0A000D0A5768617420697320256423
:1014420020737175617265643A2000252A73002544
:1014520064000D0A436F727265637420796F7520A0
:1014620061726520736D6172742C2053636F7265B3
:101472002025640057524F4E4720506C61792061FD
:0A1482006761696E21210D0A000068
:00000001FF
