:1000000019C033C032C031C030C02FC02EC02DC087
:100010002CC02BC02AC029C028C027C026C025C09C
:1000200024C023C022C021C020C01FC01EC01DC0CC
:100030001CC01BC011241FBECFEFD4E0DEBFCDBF5C
:1000400011E0A0E0B1E0E6ECF7E002C005900D920F
:10005000AE32B107D9F721E0AEE2B1E001C01D92A6
:10006000A433B207E1F702D0ACC3CACFCF93DF937A
:10007000CDB7DEB72E970FB6F894DEBF0FBECDBF5B
:1000800015D178D080E090E0AAEFB4E489839A8318
:10009000AB83BC8320E030E04AE753E469817A8196
:1000A0008B819C81E1D1DC01CB018D839E83AF8369
:1000B000B88720E030E040E85FE36D817E818F818A
:1000C000988551D188232CF481E090E09A87898724
:1000D0003BC020E03FEF4FE757E46D817E818F8189
:1000E0009885BED118163CF520E030E040E251E49E
:1000F00069817A818B819C81B7D1DC01CB01BC0104
:10010000CD0135D1DC01CB019A8789870FC089E108
:1001100090E09C878B878B859C850197F1F79C8766
:100120008B8789859A8501979A87898789859A859A
:10013000892B69F713C06D817E818F81988517D1D6
:10014000DC01CB019A87898789859A859E878D876F
:100150008D859E850197F1F79E878D8738D080E049
:1001600090E02E960FB6F894DEBF0FBECDBFDF91A4
:10017000CF910895CF93DF93CDB7DEB785EC90E0B4
:1001800023E0FC01208384EC90E02FE7FC01208336
:1001900080EC90E022E0FC01208382EC90E02EE0F5
:1001A000FC01208381EC90E028E1FC01208384E0C5
:1001B00091E090932F0180932E0184E091E0909341
:1001C0003101809330010000DF91CF910895CF93EA
:1001D000DF93CDB7DEB728970FB6F894DEBF0FBE1A
:1001E000CDBF15D220E137E2B90196D09A83898339
:1001F00080913001909131019C838B8380912E01FD
:1002000090912F019E838D838B819C819C014AE07C
:1002100050E061E070E086E191E008D28B819C8142
:100220009C014CE050E061E070E081E291E0FED1A1
:1002300089819A81019698878F83000028960FB64E
:10024000F894DEBF0FBECDBFDF91CF910895CF935D
:10025000DF9300D01F92CDB7DEB789837B836A839B
:10026000000080EC90E0FC018081882F90E080729B
:100270009927892BB1F386EC90E02981FC0120833A
:1002800080E090E00F900F900F90DF91CF91089554
:10029000CF93DF9300D0CDB7DEB79A83898380E018
:1002A00090E00F900F90DF91CF910895CF93DF935F
:1002B0001F92CDB7DEB781E090E0EAD189838981D2
:1002C000882319F08981813011F58981882379F497
:1002D00080E090E0DDD1898386E690E026E630E09C
:1002E000F90130812981230FFC01208310C080E0B7
:1002F00090E0CED1898386E690E026E630E0F901F1
:1003000030812981F32FF21B2F2FFC012083000065
:100310000F90DF91CF91089597FB072E16F400946C
:1003200006D077FD08D00BD007FC05D03EF49095A1
:1003300081959F4F0895709561957F4F0895AA1BF1
:10034000BB1B51E107C0AA1FBB1FA617B70710F0C0
:10035000A61BB70B881F991F5A95A9F780959095F2
:10036000BC01CD0108952FD008F481E0089557D045
:1003700088F09F5790F0B92F9927B751A0F0D1F08E
:10038000660F771F881F991F1AF0BA95C9F712C018
:10039000B13081F05ED0B1E008955BC0672F782F57
:1003A0008827B85F39F0B93FCCF386957795679584
:1003B000B395D9F73EF490958095709561957F4FF0
:1003C0008F4F9F4F0895990F0008550FAA0BE0E833
:1003D000FEEF16161706E807F907C0F01216130607
:1003E000E407F50798F0621B730B840B950B39F447
:1003F0000A2661F0232B242B252B21F408950A26AD
:1004000009F4A140A6958FEF811D811D089557FD28
:100410009058440F551F59F05F3F71F04795880F72
:1004200097FB991F61F09F3F79F087950895121609
:1004300013061406551FF2CF4695F1DF08C01616B5
:1004400017061806991FF1CF869571056105089466
:100450000895E894BB2766277727CB0197F908957D
:10046000B2DF08F48FEF08950BD078C069D028F080
:100470006ED018F0952309F05AC05FC01124EACF5E
:10048000C6DFA0F3959FD1F3950F50E0551F629FF3
:10049000F001729FBB27F00DB11D639FAA27F00DDD
:1004A000B11DAA1F649F6627B00DA11D661F829F04
:1004B0002227B00DA11D621F739FB00DA11D621FE9
:1004C000839FA00D611D221F749F3327A00D611D06
:1004D000231F849F600D211D822F762F6A2F1124E8
:1004E0009F5750408AF0E1F088234AF0EE0FFF1F3B
:1004F000BB1F661F771F881F91505040A9F79E3F72
:10050000510570F014C0A6CF5F3FECF3983EDCF3CA
:10051000869577956795B795F795E7959F5FC1F7AE
:10052000FE2B880F911D9695879597F9089597F959
:100530009F6780E870E060E008959FEF80EC089589
:1005400000240A94161617061806090608950024B2
:100550000A9412161306140605060895092E03942C
:10056000000C11F4882352F0BB0F40F4BF2B11F4A0
:1005700060FF04C06F5F7F4F8F4F9F4F08958F9232
:100580009F92AF92BF92CF92DF92EF92FF92CF9362
:10059000DF93EC01688179818A819B816115710506
:1005A0008105910521F464E279ED8BE597E02DE179
:1005B00033EF41E050E074D049015A019B01AC0196
:1005C000A7EAB1E489D06B017C01ACEEB4EFA501E0
:1005D00094018ED0DC01CB018C0D9D1DAE1DBF1D85
:1005E000B7FF03C00197A109B04888839983AA8304
:1005F000BB839F77DF91CF91FF90EF90DF90CF90FB
:10060000BF90AF909F908F900895B9DF089582E1D9
:1006100091E0B5DF0895A0E0B0E0809312019093DF
:100620001301A0931401B09315010895A0E0B0E068
:10063000EBE1F3E067C05B014A017901D901139650
:100640002C9121FF1DC0C0E0D0E0C815D905D9F01C
:100650008C016C01CA0CDB1CC8010C151D0571F066
:100660000F5F1F4FD7011896ED91FC911997B701B5
:10067000DC018C910995892B79F305C02196E5CF92
:1006800080E090E001C0CE01CDB7DEB7ECE056C00F
:10069000F999FECF92BD81BDF89A992780B508954A
:1006A000052E97FB16F400940FD057FD05D05BD0B4
:1006B00007FC02D046F408C050954095309521952E
:1006C0003F4F4F4F5F4F089590958095709561957E
:1006D0007F4F8F4F9F4F089568D0A59F900DB49F77
:1006E000900DA49F800D911D11240895B7FFF4CFA4
:1006F000F3DF821B930B08952F923F924F925F92EC
:100700006F927F928F929F92AF92BF92CF92DF9221
:10071000EF92FF920F931F93CF93DF93CDB7DEB786
:10072000CA1BDB0B0FB6F894DEBF0FBECDBF09941A
:100730002A88398848885F846E847D848C849B8471
:10074000AA84B984C884DF80EE80FD800C811B817F
:10075000AA81B981CE0FD11D0FB6F894DEBF0FBEAE
:10076000CDBFED010895A1E21A2EAA1BBB1BFD010E
:100770000DC0AA1FBB1FEE1FFF1FA217B307E40780
:10078000F50720F0A21BB30BE40BF50B661F771FD8
:10079000881F991F1A9469F76095709580959095B8
:1007A0009B01AC01BD01CF010895A29FB001B39F91
:1007B000C001A39F01D0B29F700D811D1124911D16
:0607C0000895F894FFCF3C
:1007C60005000100000000030000000027014801A9
:1007D60000000100000057656C636F6D65200D0A0F
:0E07E60000656E74657220696E74200D0A0045
:00000001FF
