:1000000019C033C032C031C030C02FC02EC02DC087
:100010002CC02BC02AC029C028C027C026C025C09C
:1000200024C023C022C021C020C01FC01EC01DC0CC
:100030001CC01BC011241FBECFEFD4E0DEBFCDBF5C
:1000400011E0A0E0B1E0E0E7F5E002C005900D921C
:10005000A03AB107D9F721E0A0EAB1E001C01D92B2
:10006000A63AB207E1F702D081C2CACFCF93DF939D
:1000700000D0CDB7DEB78091000190910101682FCB
:1000800080E090E0D4D18091020190910301682F2B
:1000900081E090E0CCD1DDD008D01A82198289812C
:1000A0009A8101969A838983FACFCF93DF93CDB754
:1000B000DEB785EC90E0FC01108284EC90E029E151
:1000C000FC01208380EC90E022E0FC01208382ECA4
:1000D00090E02EE0FC01208381EC90E028E1FC011F
:1000E000208384E091E09093A1018093A00184E0BB
:1000F00091E09093A3018093A2010000DF91CF9142
:100100000895CF93DF93CDB7DEB728970FB6F89455
:10011000DEBF0FBECDBF42D120E137E2B901CFD063
:100120009A8389838091A2019091A3019C838B8300
:100130008091A0019091A1019E838D838B819C81F0
:100140009C014AE050E061E070E086E191E035D149
:100150008B819C819C014CE050E061E070E081E289
:1001600091E02BD189819A81019698878F832F8185
:10017000388589819A81281739075CF48B819C81A5
:100180009C0146E150E061E070E08EE291E015D123
:100190001CC02F81388589819A81821793075CF46E
:1001A0008B819C819C0148E250E061E070E085E435
:1001B00091E003D10AC08B819C819C0140E350E017
:1001C00061E070E08EE691E0F8D0000028960FB66E
:1001D000F894DEBF0FBECDBFDF91CF910895CF93CE
:1001E000DF9300D01F92CDB7DEB789837B836A830C
:1001F000000080EC90E0FC018081882F90E080720C
:100200009927892BB1F386EC90E02981FC012083AA
:1002100080E090E00F900F900F90DF91CF910895C4
:10022000CF93DF9300D0CDB7DEB79A8389830000E8
:1002300080EC90E0FC0180818823D4F786EC90E08C
:10024000FC018081882F90E00F900F90DF91CF917B
:100250000895CF93DF931F92CDB7DEB781E090E092
:10026000DED089838981882319F08981813011F555
:100270008981882379F480E090E0D1D0898386E673
:1002800090E026E630E0F90130812981230FFC015E
:10029000208310C080E090E0C2D0898386E690E0A1
:1002A00026E630E0F90130812981F32FF21B2F2F50
:1002B000FC01208300000F90DF91CF91089597FB00
:1002C000072E16F4009406D077FD08D00BD007FC5B
:1002D00005D03EF4909581959F4F08957095619556
:1002E0007F4F0895AA1BBB1B51E107C0AA1FBB1F6C
:1002F000A617B70710F0A61BB70B881F991F5A95B2
:10030000A9F780959095BC01CD0108958F929F9299
:10031000AF92BF92CF92DF92EF92FF92CF93DF9393
:10032000EC01688179818A819B8161157105810564
:10033000910521F464E279ED8BE597E02DE133EF4F
:1003400041E050E082D049015A019B01AC01A7EA8B
:10035000B1E497D06B017C01ACEEB4EFA501940140
:100360009CD0DC01CB018C0D9D1DAE1DBF1DB7FFC8
:1003700003C00197A109B04888839983AA83BB83EE
:100380009F77DF91CF91FF90EF90DF90CF90BF905C
:10039000AF909F908F900895B9DF089582E191E02A
:1003A000B5DF0895A0E0B0E08093120190931301AF
:1003B000A0931401B09315010895A0E0B0E0E2EE1F
:1003C000F1E075C05B014A017901D90113962C91C6
:1003D00021FF1DC0C0E0D0E0C815D905D9F08C01BF
:1003E0006C01CA0CDB1CC8010C151D0571F00F5FF8
:1003F0001F4FD7011896ED91FC911997B701DC01B9
:100400008C910995892B79F305C02196E5CF80E081
:1004100090E001C0CE01CDB7DEB7ECE064C0F99941
:10042000FECF92BD81BDF89A992780B50895262FF9
:10043000F999FECF1FBA92BD81BD20BD0FB6F894C9
:10044000FA9AF99A0FBE01960895052E97FB16F4B5
:1004500000940FD057FD05D05BD007FC02D046F4C6
:1004600008C050954095309521953F4F4F4F5F4FB5
:10047000089590958095709561957F4F8F4F9F4F10
:10048000089568D0A59F900DB49F900DA49F800DF6
:10049000911D11240895B7FFF4CFF3DF821B930B56
:1004A00008952F923F924F925F926F927F928F9218
:1004B0009F92AF92BF92CF92DF92EF92FF920F93F3
:1004C0001F93CF93DF93CDB7DEB7CA1BDB0B0FB6FD
:1004D000F894DEBF0FBECDBF09942A8839884888BA
:1004E0005F846E847D848C849B84AA84B984C88450
:1004F000DF80EE80FD800C811B81AA81B981CE0F47
:10050000D11D0FB6F894DEBF0FBECDBFED0108952B
:10051000A1E21A2EAA1BBB1BFD010DC0AA1FBB1F07
:10052000EE1FFF1FA217B307E407F50720F0A21B79
:10053000B30BE40BF50B661F771F881F991F1A94E6
:1005400069F760957095809590959B01AC01BD0110
:10055000CF010895A29FB001B39FC001A39F01D016
:10056000B29F700D811D1124911D0895F894FFCF45
:10057000050001000000000300000000EF00100172
:1005800000000100000057656C636F6D65200D0A67
:1005900000656E74657220696E74200D0A00546FD8
:1005A0006F206C6F772C20796F75206E65656420E5
:1005B0005745454400596F7520676F7420746F204C
:1005C000486967682C20796F75206E6565642073B3
:1005D0006F6D65206579652064726F707300436F7D
:1005E0006E677261747320596F7520616368656905
:1005F00065766564207468652070726566656374ED
:10060000206C6576656C206F662057454564000058
:00000001FF
