:100000001FC039C038C037C036C035C034C033C057
:1000100032C031C030C02FC02EC02DC02CC02BC06C
:100020002AC029C028C027C026C025C024C023C09C
:1000300022C021C06364696E6F70737578585B006D
:1000400011241FBECFEFD4E0DEBFCDBF11E0A0E092
:10005000B1E0EAE3FBE002C005900D92A43AB107DB
:10006000D9F721E0A4EAB1E001C01D92AA3AB20793
:10007000E1F702D060C5C4CFCF93DF9300D0CDB7F6
:10008000DEB708D01A82198289819A8101969A83F3
:100090008983FACFCF93DF93CDB7DEB785EC90E0BD
:1000A000FC01108284EC90E02CE0FC01208380ECC9
:1000B00090E022E0FC01208382EC90E02EE0FC0145
:1000C000208381EC90E028E1FC01208380E091E036
:1000D0009093A5018093A40180E091E09093A70103
:1000E0008093A6010000DF91CF910895CF93DF9315
:1000F000CDB7DEB728970FB6F894DEBF0FBECDBFE1
:100100003ED120E137E2B901CBD09A838983809137
:10011000A6019091A7019C838B838091A40190916B
:10012000A5019E838D838B819C819C014AE050E0D8
:1001300061E070E082E191E040D18B819C819C0183
:100140004CE050E061E070E08DE191E036D18981D2
:100150009A81019698878F8357C08AE291E0892F10
:100160008F938AE291E08F938E818F938D818F930D
:1001700015D10F900F900F900F90CE010796292F59
:100180002F938F938FE291E0892F8F938FE291E0ED
:100190008F938E818F938D818F9300D10F900F90CD
:1001A0000F900F900F900F900197B9F62F8138851F
:1001B00089819A81281739075CF48B819C819C0185
:1001C00046E150E061E070E082E391E0F6D01CC0CF
:1001D0002F81388589819A81821793075CF48B81FE
:1001E0009C819C0148E250E061E070E089E491E08C
:1001F000E4D00AC08B819C819C0140E350E061E027
:1002000070E082E791E0D9D02F81388589819A8189
:100210002817390709F0B1CF000028960FB6F894D7
:10022000DEBF0FBECDBFDF91CF910895CF93DF9397
:1002300000D01F92CDB7DEB789837B836A8300002D
:1002400080EC90E0FC018081882F90E080729927FB
:10025000892BB1F386EC90E02981FC01208380E0BA
:1002600090E00F900F900F90DF91CF910895CF9372
:10027000DF9300D0CDB7DEB79A838983000080EC8E
:1002800090E0FC0180818823D4F786EC90E0FC01AB
:100290008081882F90E00F900F90DF91CF9108958B
:1002A00097FB072E16F4009406D077FD08D00BD0EC
:1002B00007FC05D03EF4909581959F4F0895709569
:1002C00061957F4F0895AA1BBB1B51E107C0AA1F70
:1002D000BB1FA617B70710F0A61BB70B881F991FE7
:1002E0005A95A9F780959095BC01CD0108958F92FC
:1002F0009F92AF92BF92CF92DF92EF92FF92CF93F5
:10030000DF93EC01688179818A819B816115710598
:100310008105910521F464E279ED8BE597E02DE10B
:1003200033EF41E050E076D349015A019B01AC0123
:10033000A7EAB1E48BD36B017C01ACEEB4EFA5016D
:10034000940190D3DC01CB018C0D9D1DAE1DBF1D12
:10035000B7FF03C00197A109B04888839983AA8396
:10036000BB839F77DF91CF91FF90EF90DF90CF908D
:10037000BF90AF909F908F900895B9DF08958EE061
:1003800091E0B5DF0895A0E0B0E080930E01909376
:100390000F01A0931001B09311010895A0E0B0E007
:1003A000E3EDF1E073C3AE01475F5F4F6F81788586
:1003B0008D819E81C1D1E2E085C3A0E0B0E0E2EE94
:1003C000F1E05AC35B014A017901D90113962C91DE
:1003D00021FF1DC0C0E0D0E0C815D905D9F08C01BF
:1003E0006C01CA0CDB1CC8010C151D0571F00F5FF8
:1003F0001F4FD7011896ED91FC911997B701DC01B9
:100400008C910995892B79F305C02196E5CF80E081
:1004100090E001C0CE01CDB7DEB7ECE049C320FDCE
:1004200009C0FC0123FD05C022FF02C07383628363
:1004300051834083089544FD17C046FD17C0AB01AA
:10044000BC01DA01FB01AA0FBB1FEE1FFF1F1094B6
:10045000D1F74A0F5B1F6E1F7F1FCB01BA01660FDA
:10046000771F881F991F09C033E001C034E0660F71
:10047000771F881F991F3150D1F7620F711D811DA1
:10048000911D08950F931F93CF93DF938C01C801A3
:1004900067D2EC0197FD06C050D2892BC1F7B80195
:1004A000CE019CD2CE01DF91CF911F910F91089583
:1004B0008F929F92AF92BF92EF92FF920F931F93F2
:1004C000CF93DF938C01D62F7A01B22E49D29C01B3
:1004D00033272B32310531F02D32310559F48B2D74
:1004E0008068B82ED15011F480E061C0C80138D2C4
:1004F00097FDFACFCB2DCD7F2B2D2073F9F48033D0
:10050000E9F4AA24AA94AD0E09F43EC0C80128D289
:1005100097FD3AC09C012F7D33272835310541F4E2
:10052000C264D25089F1C8011BD297FF07C02CC00A
:10053000B6FE02C0C26001C0C261DA2D812C912CCE
:10054000540120ED280F283078F0C4FF03C0B80113
:1005500045D217C02A3040F0C6FFF9CF2F7D3FEEBD
:10056000320F3630A0F727504C2FC501B40163DF9E
:100570004B015C01C260D15051F0C801F1D197FF2D
:10058000E0CFC1FD04C0B0CF812C912C5401C7FF36
:1005900008C0B094A09490948094811C911CA11CDC
:1005A000B11C2C2FB501A401C70139DF81E0DF9117
:1005B000CF911F910F91FF90EF90BF90AF909F90C0
:1005C0008F900895A0E2B0E0E7EEF2E052C25C0145
:1005D000962E7A01F9018E010F5F1F4F680180E2AC
:1005E000D8011D928A95E9F7D50113968C9080E089
:1005F00090E0612C712C30E061E070E083FC25918B
:1006000083FE21918F01522E211103C080E090E0E2
:1006100090C02E3511F4009751F1432F50E0481748
:1006200059073CF42D3559F12D3219F4772009F191
:1006300003C0772009F468C0452D46954695469538
:10064000D601A40FB11D452D47708B0102C0000FCC
:10065000111F4A95E2F7A8015C91452B4C93651454
:1006600059F0561410F45394E7CF5A94E5CF31E083
:1006700004C07724739401C0712C0196BFCF7720FA
:1006800019F08E8180628E83311103C08824839497
:1006900017C0F6019E012F5D3F4F808180958193A9
:1006A0002E173F07D1F7F2CFE114F10429F0D7015B
:1006B0008C93F70131967F019A94812C9920E9F06F
:1006C000C5014ED197FD17C0FC01FF2723E0F5952A
:1006D000E7952A95E1F7EC0DFD1D208130E0AC0196
:1006E0004770552702C0359527954A95E2F720FDBA
:1006F000DBCFB50173D1811089CFE114F10411F082
:10070000D7011C92C80115C0422F469546954695C3
:10071000D601A40FB11D422F47708B0102C0000FFC
:10072000111F4A95E2F7A8015C91452B4C93622E6C
:10073000A4CFA096EFE0B9C1A0E0B0E0E1EAF3E019
:1007400098C16C01EB015A01FC0117821682512CF1
:10075000F601E380FE01E3FC8591E3FE8191182F11
:10076000EF01882309F4E0C090E0E7D0892B19F06D
:10077000C60188DEEDCF153241F4FE01E3FC159190
:10078000E3FE1191EF01153271F4C601E9D097FD36
:10079000C9C0412F50E09C01332724173507C1F20F
:1007A000B6011CD1C1C01A3239F4E3FC1591E3FE45
:1007B0001191EF0101E001C000E0F12C20ED210FCB
:1007C0002A3078F402606F2D70E080E090E040E223
:1007D00032DEF62EFE01E3FC1591E3FE1191EF01EE
:1007E000EDCF01FF03C0F11003C09EC0FF24FA94B7
:1007F000183619F01C3651F010C0FE01E3FC1591BB
:10080000E3FE1191EF01183641F408600460FE0127
:10081000E3FC1591E3FE1191EF01112309F484C06B
:10082000612F70E084E390E090D0892B09F47CC0C4
:1008300000FD07C0F50180809180C50102965C0132
:1008400002C0812C912C1E3649F4F6014681578155
:1008500060E070E0202FC401E2DD7ACF1336A1F40E
:1008600001FD02C0FF24F394C6017AD097FD5AC05F
:100870008114910429F0F4018083C40101964C0194
:10088000FA94F110F1CF4AC01B3551F49E01A40136
:100890006F2DC60197DEEC01892B09F03FC039C0EE
:1008A000C601F0DD97FD3EC01F3649F128F414362D
:1008B00021F1193639F125C0133771F01537E9F0F8
:1008C00020C08114910429F0F4016082C4010196D2
:1008D0004C01FA94FF2059F0C60142D03C0197FD2B
:1008E00006C02BD0892B69F3B601C30177D08114E0
:1008F0009104A1F0F401108211C0006203C00061F4
:1009000001C00064202FA4016F2DC601D1DD81112B
:1009100005C0F6018381807329F406C000FD18CF5D
:10092000539416CF552019F0852D90E002C08FEF1B
:100930009FEFCDB7DEB7EFE0B8C0911168C080324D
:1009400019F089508550D0F70895FC0105900616DE
:1009500021F00020D9F7C00108953197CF01089503
:10096000CF93DF93EC012B8120FF33C026FF0AC019
:100970002F7B2B838E819F8101969F838E838A811B
:1009800090E029C022FF0FC0E881F9818081082E04
:10099000000C990B009719F420622B831AC0319632
:1009A000F983E8830EC0EA85FB85099597FF09C0A6
:1009B0002B81019611F080E201C080E1822B8B83B4
:1009C00008C02E813F812F5F3F4F3F832E839927A1
:1009D00002C08FEF9FEFDF91CF910895FB0123813C
:1009E00020FF12C026FD10C08F3F3FEF930761F03C
:1009F00082832F7D20642383268137812150310912
:100A000037832683992708958FEF9FEF08959927BD
:100A100088270895052E97FB16F400940FD057FDF4
:100A200005D05BD007FC02D046F408C05095409535
:100A3000309521953F4F4F4F5F4F0895909580958A
:100A4000709561957F4F8F4F9F4F089568D0A59FF8
:100A5000900DB49F900DA49F800D911D11240895B9
:100A6000B7FFF4CFF3DF821B930B08952F923F92D1
:100A70004F925F926F927F928F929F92AF92BF92AE
:100A8000CF92DF92EF92FF920F931F93CF93DF935A
:100A9000CDB7DEB7CA1BDB0B0FB6F894DEBF0FBEB7
:100AA000CDBF09942A88398848885F846E847D8404
:100AB0008C849B84AA84B984C884DF80EE80FD8006
:100AC0000C811B81AA81B981CE0FD11D0FB6F8947C
:100AD000DEBF0FBECDBFED010895A1E21A2EAA1B05
:100AE000BB1BFD010DC0AA1FBB1FEE1FFF1FA217DE
:100AF000B307E407F50720F0A21BB30BE40BF50BDB
:100B0000661F771F881F991F1A9469F76095709563
:100B1000809590959B01AC01BD01CF010895A29FE6
:100B2000B001B39FC001A39F01D0B29F700D811D82
:0A0B30001124911D0895F894FFCFE1
:100B3A000000000300000000160137010000010058
:100B4A00000057656C636F6D65200D0A00656E7451
:100B5A00657220696E74200D0A0025732A730025B8
:100B6A006400546F6F206C6F772C20796F75206E3C
:100B7A00656564205745454400596F7520676F7451
:100B8A0020746F20486967682C20796F75206E651C
:100B9A00656420736F6D65206579652064726F7076
:100BAA007300436F6E677261747320596F752061A9
:100BBA006368656965766564207468652070726526
:100BCA0066656374206C6576656C206F6620574590
:040BDA00456400006E
:00000001FF
